:020000040800F2
:100000000050002051010008BD010008BD0100089A
:10001000BD010008BD010008BD010008BD010008C8
:10002000BD010008BD010008BD010008BD010008B8
:10003000BD010008BD010008BD0100084103000822
:10004000BD010008BD010008BD010008BD01000898
:10005000BD010008BD010008BD010008BD01000888
:10006000BD010008BD010008BD010008BD01000878
:10007000BD010008BD010008BD010008BD01000868
:10008000BD010008BD010008BD010008BD01000858
:10009000BD010008BD010008BD010008BD01000848
:1000A000BD010008BD010008BD010008BD01000838
:1000B000BD010008BD010008BD010008BD01000828
:1000C000BD010008BD010008BD010008BD01000818
:1000D000BD010008BD010008BD010008BD01000808
:1000E000BD010008BD010008BD010008BD010008F8
:1000F000BD010008BD010008BD010008BD010008E8
:10010000BD010008BD010008BD010008BD010008D7
:10011000BD010008BD010008BD010008BD010008C7
:10012000BD010008BD010008BD010008BD010008B7
:10013000BD010008BD010008BD010008BD010008A7
:10014000BD010008BD010008BD010008BD01000897
:1001500080B582B000AF134B7B60134B3B60134AFA
:10016000124B5B6943F40073536107E07B685A1CD0
:100170007A603A68511C396012781A707B680C4AB0
:100180009342F3D30B4B7B6005E07B6800221A702F
:100190007B6801337B607B68074A9342F5D300F0AC
:1001A0003DFCFEE700000020640A000800ED00E0CE
:1001B00004000020040000201000002080B400AFE4
:1001C000FEE700BF80B400AF164B174A5A60154BCC
:1001D000164A1A6000BF134B1B6803F40033002B50
:1001E000F9D000BF0F4B1B6803F00073002BF9D050
:1001F0000F4B12221A600B4B0E4A5A60094A094BE8
:100200009B6943F4804343F01D039361054A054B0A
:10021000DB6943F4001343F00103D36100BFBD4623
:1002200080BC70470010024000041D0081000101E5
:100230000020024002041D0080B487B000AFF860C7
:10024000B9607A60BB68072B06D9FB6804337B6111
:10025000BB68083BBB6001E0FB687B617B691B6896
:100260003B61BB689B000F2202FA03F3DB431A4693
:100270003B6913403B617B6803F00F02BB689B0046
:1002800002FA03F33A6913433B617B693A691A60E6
:1002900000BF1C37BD4680BC704700BF80B487B02C
:1002A00000AFF860B9601346FB71FB68DB687B61E7
:1002B000FB79002B08D00122BB6802FA03F31A462F
:1002C0007B6913437B6108E00122BB6802FA03F3F8
:1002D000DB431A467B6913407B61FB687A69DA600D
:1002E00000BF1C37BD4680BC704700BF80B483B0E0
:1002F00000AF786039607B689B6801213A6801FA39
:1003000002F21340002B14BF01230023DBB2184676
:100310000C37BD4680BC704780B483B000AF7860B6
:1003200039607B68DB6801213A6801FA02F25A40C1
:100330007B68DA6000BF0C37BD4680BC704700BFE9
:1003400080B500AF044B1B680133034A136000F013
:100350002BFB00BF80BD00BF0400002080B485B02F
:1003600000AF7860074B1B68FB6000BF054B1A6845
:10037000FB68D21A7B689A42F8D300BF1437BD4697
:1003800080BC70470400002080B483B000AF786068
:100390007B6809E000BF084B1B6803F48033002B27
:1003A000F9D07B68013B7B607B68002BF2D100BFFA
:1003B0000C37BD4680BC704710E000E080B483B0CD
:1003C00000AF78600B46FB700D4A0D4B1B68136045
:1003D0000B490B4B1B68FA78520013430B60084A19
:1003E0007B685360064B00229A60054A044B1B68E9
:1003F00043F00103136000BF0C37BD4680BC70475B
:1004000010E000E080B483B000AF2A4A294BDB69DA
:1004100043F00103D361274A264B9B6943F0040351
:100420009361254A244B1B6823F0F0031360224A92
:10043000214B1B6843F0B0031360204B1B68204A1C
:10044000A2FB03239B0CFB804FF08042FB88013B07
:1004500093621A4B1A68FB88B2FBF3F3194AA2FBAA
:1004600003231B09BB804FF08042BB88D3624FF04F
:10047000804340F23C529A634FF080424FF08043F9
:100480009B6943F4C04393614FF080424FF0804337
:100490001B6A43F0100313624FF080424FF0804319
:1004A0001B6843F00103136000BF0C37BD4680BCDE
:1004B000704700BF0010024000080140000000200B
:1004C00083DE1B431F85EB5180B400AF204A204BD5
:1004D0005B6843F4004353601D4A1D4B9B6943F422
:1004E000007393611B4A1B4B1B6823F00F031360BF
:1004F000194A194B1B6943F003031361164A164B43
:100500009B6843F003039360134A134B9B6843F0CB
:100510000803936000BF104B9B6803F00803002B97
:10052000F9D10D4A0C4B9B6843F00403936000BF64
:10053000094B9B6803F00403002BF9D1064A064BD4
:100540009B6843F00103936000BFBD4680BC7047C9
:1005500000100240000801400024014080B582B034
:1005600000AF7860114B0B2209211846FFF764FE9B
:100570000E4B08220A211846FFF75EFE0C4B42F292
:100580000C02DA600A4B00221A61094B00225A6100
:10059000074B00229A61064A06497B6891FBF3F3F8
:1005A000936000BF0837BD4680BD00BF0008014012
:1005B0000038014000A24A0480B483B000AF034673
:1005C000FB7100BF064B1B6803F08003002BF9D0C2
:1005D000034AFB79536000BF0C37BD4680BC7047AF
:1005E0000038014080B400AF00BF064B1B6803F029
:1005F0002003002BF9D0034B5B68DBB21846BD46E5
:1006000080BC70470038014080B500AF0E4B0F2210
:1006100006211846FFF710FE0B4B0F220721184644
:10062000FFF70AFE094B24225A60084B0B221A627C
:10063000064B48F25002DA61044A044B1B6843F04F
:100640000103136000BF80BD000C01400054004056
:1006500080B487B000AF0346B9607A60FB733C4A50
:100660003B4B1B6843F48073136000237B6109E0FC
:100670007B69B3F57A7F02D94FF0FF3362E07B6983
:1006800001337B61324B5B6903F00103002BEFD038
:100690002F4AFB7B5B00136100237B6109E07B69D0
:1006A000B3F57A7F02D96FF001034BE07B69013328
:1006B0007B61274B5B6903F00203002BEFD0244BD7
:1006C0009B691CE000237B6109E07B69B3F57A7FBD
:1006D00002D96FF0020335E07B6901337B611C4B6B
:1006E0005B6903F08003002BEFD0194ABB681B78CD
:1006F00013617B68013B7B60BB680133BB607B6837
:10070000002BDFD100237B6109E07B69B3F57A7FA1
:1007100002D96FF0030315E07B6901337B610C4B59
:100720005B6903F08003002BEFD0094B5B6903F09A
:100730000403002BE9D0064A054B1B6843F4007301
:100740001360002318461C37BD4680BC704700BFAD
:100750000054004080B487B000AF03463960FB719D
:100760003C4A3C4B1B6843F480631360394A394B65
:100770001B6843F48073136000237B6109E07B698D
:10078000B3F57A7F02D94FF0FF335DE07B69013327
:100790007B61304B5B6903F00103002BEFD02D4AE6
:1007A000FB795B0043F00103136100237B6109E0E7
:1007B0007B69B3F57A7F02D96FF0010344E07B696E
:1007C00001337B61234B5B6903F00203002BEFD005
:1007D000204B9B6900233B611EE000237B6109E005
:1007E0007B69B3F57A7F02D96FF002032CE07B6955
:1007F00001337B61174B5B6903F04003002BEFD0A3
:10080000144B1B69FB60134A124B1B6843F4806353
:1008100013603B6901333B613B685A1E3B699A4256
:10082000DBDA3B6901333B610A4B1B69FB60094A18
:10083000084B1B6823F480631360064A054B1B6852
:1008400043F400731360FB6818461C37BD4680BC38
:10085000704700BF0054004080B500AF1D4A1D4BDB
:100860009B6943F0040393611A4A1A4B9B6943F452
:1008700080539361184A184B1B6823F0704323F48C
:100880007F031360144A144B1B6843F44033136016
:10089000114A114B1B6843F4300313600E4A0E4B90
:1008A0001B6843F0304313600B4B082206211846A7
:1008B000FFF7C2FC084B10221A61084B4FF4497233
:1008C0001A60064A054B1B6843F04003136000BFE3
:1008D00080BD00BF00100240000801400030014010
:1008E00080B483B000AF0346FB80104B4FF48012FE
:1008F0001A610F4AFB88D36000BF0D4B9B6803F061
:100900000203002BF9D000BF094B9B6803F0800362
:10091000002BF9D1054B10221A61054BDB689BB205
:1009200018460C37BD4680BC704700BF0008014028
:100930000030014080B483B000AF03460A46FB712B
:100940001346BB71164B4FF480121A61154AFB799E
:10095000D36000BF134B9B6803F00203002BF9D058
:1009600000BF104B9B6803F08003002BF9D10D4AA8
:10097000BB79D36000BF0B4B9B6803F00203002BD5
:10098000F9D000BF074B9B6803F08003002BF9D11F
:10099000034B10221A6100BF0C37BD4680BC704764
:1009A000000801400030014080B500AF164B1A68C6
:1009B000164BA3FB02131B09FA2101FB03F3D31A05
:1009C000002B1ED1124B0D211846FFF7A5FC114B31
:1009D0001B889BB2DAB2104B1A7001220E492720F5
:1009E000FFF736FE0B4B1B889BB201339AB2094BC3
:1009F0001A80084B1B889BB2FF2B02D9054B0022A3
:100A00001A8000BF80BD00BF04000020D34D6210DB
:100A100000100140080000200C00002080B500AF4D
:100A2000FFF7D0FB01210648FFF7C8FC054B072262
:100A30000D211846FFF700FCFFF7E6FDFEE700BFBB
:100A4000401901000010014000080140000C014065
:100A5000001001400014014000000040002401404B
:040A60000030014021
:040A640000A24A049E
:04000005080001519D
:00000001FF
