:020000040800F2
:100000000050002051010008BD010008BD0100089A
:10001000BD010008BD010008BD010008BD010008C8
:10002000BD010008BD010008BD010008BD010008B8
:10003000BD010008BD010008BD0100084103000822
:10004000BD010008BD010008BD010008BD01000898
:10005000BD010008BD010008BD010008BD01000888
:10006000BD010008BD010008BD010008BD01000878
:10007000BD010008BD010008BD010008BD01000868
:10008000BD010008BD010008BD010008BD01000858
:10009000BD010008BD010008BD010008BD01000848
:1000A000BD010008BD010008BD010008BD01000838
:1000B000BD010008BD010008BD010008BD01000828
:1000C000BD010008BD010008BD010008BD01000818
:1000D000BD010008BD010008BD010008BD01000808
:1000E000BD010008BD010008BD010008BD010008F8
:1000F000BD010008BD010008BD010008BD010008E8
:10010000BD010008BD010008BD010008BD010008D7
:10011000BD010008BD010008BD010008BD010008C7
:10012000BD010008BD010008BD010008BD010008B7
:10013000BD010008BD010008BD010008BD010008A7
:10014000BD010008BD010008BD010008BD01000897
:1001500080B582B000AF134B7B60134B3B60134AFA
:10016000124B5B6943F40073536107E07B685A1CD0
:100170007A603A68511C396012781A707B680C4AB0
:100180009342F3D30B4B7B6005E07B6800221A702F
:100190007B6801337B607B68074A9342F5D300F0AC
:1001A000B3FEFEE700000020780F000800ED00E03D
:1001B00004000020040000200C00002080B400AFE8
:1001C000FEE700BF80B400AF164B174A5A60154BCC
:1001D000164A1A6000BF134B1B6803F40033002B50
:1001E000F9D000BF0F4B1B6803F00073002BF9D050
:1001F0000F4B12221A600B4B0E4A5A60094A094BE8
:100200009B6943F4804343F01D039361054A054B0A
:10021000DB6943F4001343F00103D36100BFBD4623
:1002200080BC70470010024000041D0081000101E5
:100230000020024002041D0080B487B000AFF860C7
:10024000B9607A60BB68072B06D9FB6804337B6111
:10025000BB68083BBB6001E0FB687B617B691B6896
:100260003B61BB689B000F2202FA03F3DB431A4693
:100270003B6913403B617B6803F00F02BB689B0046
:1002800002FA03F33A6913433B617B693A691A60E6
:1002900000BF1C37BD4680BC704700BF80B487B02C
:1002A00000AFF860B9601346FB71FB68DB687B61E7
:1002B000FB79002B08D00122BB6802FA03F31A462F
:1002C0007B6913437B6108E00122BB6802FA03F3F8
:1002D000DB431A467B6913407B61FB687A69DA600D
:1002E00000BF1C37BD4680BC704700BF80B483B0E0
:1002F00000AF786039607B689B6801213A6801FA39
:1003000002F21340002B14BF01230023DBB2184676
:100310000C37BD4680BC704780B483B000AF7860B6
:1003200039607B68DB6801213A6801FA02F25A40C1
:100330007B68DA6000BF0C37BD4680BC704700BFE9
:1003400080B500AF044B1B680133034A136000F013
:10035000A7FC00BF80BD00BF0400002080B485B0B2
:1003600000AF7860074B1B68FB6000BF054B1A6845
:10037000FB68D21A7B689A42F8D300BF1437BD4697
:1003800080BC70470400002080B483B000AF786068
:100390007B6809E000BF084B1B6803F48033002B27
:1003A000F9D07B68013B7B607B68002BF2D100BFFA
:1003B0000C37BD4680BC704710E000E080B483B0CD
:1003C00000AF78600B46FB700D4A0D4B1B68136045
:1003D0000B490B4B1B68FA78520013430B60084A19
:1003E0007B685360064B00229A60054A044B1B68E9
:1003F00043F00103136000BF0C37BD4680BC70475B
:1004000010E000E080B483B000AF2A4A294BDB69DA
:1004100043F00103D361274A264B9B6943F0040351
:100420009361254A244B1B6823F0F0031360224A92
:10043000214B1B6843F0B0031360204B1B68204A1C
:10044000A2FB03239B0CFB804FF08042FB88013B07
:1004500093621A4B1A68FB88B2FBF3F3194AA2FBAA
:1004600003231B09BB804FF08042BB88D3624FF04F
:10047000804340F23C529A634FF080424FF08043F9
:100480009B6943F4C04393614FF080424FF0804337
:100490001B6A43F0100313624FF080424FF0804319
:1004A0001B6843F00103136000BF0C37BD4680BCDE
:1004B000704700BF0010024000080140000000200B
:1004C00083DE1B431F85EB5180B400AF204A204BD5
:1004D0005B6843F4004353601D4A1D4B9B6943F422
:1004E000007393611B4A1B4B1B6823F00F031360BF
:1004F000194A194B1B6943F003031361164A164B43
:100500009B6843F003039360134A134B9B6843F0CB
:100510000803936000BF104B9B6803F00803002B97
:10052000F9D10D4A0C4B9B6843F00403936000BF64
:10053000094B9B6803F00403002BF9D1064A064BD4
:100540009B6843F00103936000BFBD4680BC7047C9
:1005500000100240000801400024014080B582B034
:1005600000AF7860114B0B2209211846FFF764FE9B
:100570000E4B08220A211846FFF75EFE0C4B42F292
:100580000C02DA600A4B00221A61094B00225A6100
:10059000074B00229A61064A06497B6891FBF3F3F8
:1005A000936000BF0837BD4680BD00BF0008014012
:1005B0000038014000A24A0480B483B000AF034673
:1005C000FB7100BF064B1B6803F08003002BF9D0C2
:1005D000034AFB79536000BF0C37BD4680BC7047AF
:1005E0000038014080B400AF00BF064B1B6803F029
:1005F0002003002BF9D0034B5B68DBB21846BD46E5
:1006000080BC70470038014080B500AF0E4B0F2210
:1006100006211846FFF710FE0B4B0F220721184644
:10062000FFF70AFE094B24225A60084B0B221A627C
:10063000064B48F25002DA61044A044B1B6843F04F
:100640000103136000BF80BD000C01400054004056
:1006500080B487B000AF0346B9607A60FB733C4A50
:100660003B4B1B6843F48073136000237B6109E0FC
:100670007B69B3F57A7F02D94FF0FF3362E07B6983
:1006800001337B61324B5B6903F00103002BEFD038
:100690002F4AFB7B5B00136100237B6109E07B69D0
:1006A000B3F57A7F02D96FF001034BE07B69013328
:1006B0007B61274B5B6903F00203002BEFD0244BD7
:1006C0009B691CE000237B6109E07B69B3F57A7FBD
:1006D00002D96FF0020335E07B6901337B611C4B6B
:1006E0005B6903F08003002BEFD0194ABB681B78CD
:1006F00013617B68013B7B60BB680133BB607B6837
:10070000002BDFD100237B6109E07B69B3F57A7FA1
:1007100002D96FF0030315E07B6901337B610C4B59
:100720005B6903F08003002BEFD0094B5B6903F09A
:100730000403002BE9D0064A054B1B6843F4007301
:100740001360002318461C37BD4680BC704700BFAD
:100750000054004080B487B000AF03463960FB719D
:100760003C4A3C4B1B6843F480631360394A394B65
:100770001B6843F48073136000237B6109E07B698D
:10078000B3F57A7F02D94FF0FF335DE07B69013327
:100790007B61304B5B6903F00103002BEFD02D4AE6
:1007A000FB795B0043F00103136100237B6109E0E7
:1007B0007B69B3F57A7F02D96FF0010344E07B696E
:1007C00001337B61234B5B6903F00203002BEFD005
:1007D000204B9B6900233B611EE000237B6109E005
:1007E0007B69B3F57A7F02D96FF002032CE07B6955
:1007F00001337B61174B5B6903F04003002BEFD0A3
:10080000144B1B69FB60134A124B1B6843F4806353
:1008100013603B6901333B613B685A1E3B699A4256
:10082000DBDA3B6901333B610A4B1B69FB60094A18
:10083000084B1B6823F480631360064A054B1B6852
:1008400043F400731360FB6818461C37BD4680BC38
:10085000704700BF0054004080B500AF1D4A1D4BDB
:100860009B6943F0040393611A4A1A4B9B6943F452
:1008700080539361184A184B1B6823F0704323F48C
:100880007F031360144A144B1B6843F44033136016
:10089000114A114B1B6843F4300313600E4A0E4B90
:1008A0001B6843F0304313600B4B082206211846A7
:1008B000FFF7C2FC084B10221A61084B4FF4497233
:1008C0001A60064A054B1B6843F04003136000BFE3
:1008D00080BD00BF00100240000801400030014010
:1008E00080B483B000AF0346FB80104B4FF48012FE
:1008F0001A610F4AFB88D36000BF0D4B9B6803F061
:100900000203002BF9D000BF094B9B6803F0800362
:10091000002BF9D1054B10221A61054BDB689BB205
:1009200018460C37BD4680BC704700BF0008014028
:100930000030014080B483B000AF03460A46FB712B
:100940001346BB71164B4FF480121A61154AFB799E
:10095000D36000BF134B9B6803F00203002BF9D058
:1009600000BF104B9B6803F08003002BF9D10D4AA8
:10097000BB79D36000BF0B4B9B6803F00203002BD5
:10098000F9D000BF074B9B6803F08003002BF9D11F
:10099000034B10221A6100BF0C37BD4680BC704764
:1009A000000801400030014080B485B000AF78609D
:1009B0000023FB600DE00023BB6002E0BB68013355
:1009C000BB60BB6841F249029342F7DDFB6801332B
:1009D000FB60FA687B689A42EDDB00BF1437BD46C6
:1009E00080BC704780B483B000AF00237B6002E01E
:1009F0007B6801337B607B68034A9342F8DD00BF6C
:100A00000C37BD4680BC70478F5F010080B584B055
:100A100000AF0346FB71FB793B7307F10C03012226
:100A200019462720FFF714FE00BF1037BD4680BDD2
:100A300080B500AFFFF7D6FF0120FFF7B5FF144BDD
:100A400001221A70134B04221A70124B1B7818469D
:100A5000FFF7DCFF0120FFF7A7FF0021332000F0A4
:100A60003FF80021322000F03BF80021282000F060
:100A700037F800210C2000F033F80021012000F0AD
:100A80002FF80021062000F02BF800BF80BD00BF2A
:100A9000080000200900002080B500AF0F4B1B7834
:100AA00043F00403DAB20D4B1A700C4B1B78184656
:100AB000FFF7ACFF0120FFF777FF084B1B7823F00F
:100AC0000603DAB2054B1A70044B1B781846FFF781
:100AD0009DFF0120FFF768FF00BF80BD09000020D7
:100AE00080B582B000AF03460A46FB711346BB7166
:100AF000BB79002B02D0012B08D00FE01A4B1B78DA
:100B000023F00B03DAB2184B1A7007E0164B1B7870
:100B100043F00103DAB2144B1A7000BF134B1B7879
:100B2000002B09D0012B0FD10F4B1B7843F008038A
:100B3000DAB20D4B1A7007E00B4B1B7823F0080359
:100B4000DAB2094B1A7000BF074B1B781846FFF743
:100B50005DFFFB79184600F00BF80120FFF724FF3A
:100B600000BF0837BD4680BD0900002008000020F6
:100B700080B584B000AF0346FB710023FB73FB79A3
:100B800023F00F03FB731A4B1B7803F00F03DAB249
:100B9000174B1A70164B1A78FB7B1343DAB2144BBF
:100BA0001A70134B1B781846FFF730FFFFF774FFDE
:100BB000FB7903F00F03FB73FB7B1B01FB730C4BF7
:100BC0001B7803F00F03DAB2094B1A70084B1A783E
:100BD000FB7B1343DAB2064B1A70054B1B781846A1
:100BE000FFF714FFFFF758FF00BF1037BD4680BD69
:100BF0000900002080B582B000AF78607B685A1C85
:100C00007A601B78184600F009F87B681B78002B87
:100C1000F4D100BF0837BD4680BD00BF80B582B0AB
:100C200000AF0346FB71FB791F2B08D9FB795BB240
:100C3000002B04DBFB7901211846FFF751FF00BFB1
:100C40000837BD4680BD00BF80B500AF0021012040
:100C5000FFF746FF00210220FFF742FF00BF80BDE3
:100C600080B582B000AF03460A46FB711346BB71E4
:100C7000BB79002B08D1FB7963F07F03DBB2002145
:100C80001846FFF72DFF07E0FB7963F03F03DBB267
:100C900000211846FFF724FF00BF0837BD4680BD7E
:100CA00080B500AF094B1A68094BA3FB02131B095F
:100CB000322101FB03F3D31A002B04D1054B0D2184
:100CC0001846FFF729FB00BF80BD00BF04000020CD
:100CD0001F85EB5100100140B0B592B000AF00236A
:100CE00087F84730524A07F1340307CA03C31A8012
:100CF0000233120C1A704F4A07F1280307CA83E81F
:100D000007004D4B07F114041D460FCD0FC42B688F
:100D100023704A4B3C1D0FCB07C42380FFF788FE8E
:100D2000FFF792FF00210320FFF79AFF07F134033A
:100D30001846FFF75FFF01210320FFF791FF07F13E
:100D400028031846FFF756FF40F6B830FFF72CFE91
:100D5000FFF77AFF002387F8473017E097F847300E
:100D600000211846FFF77CFF97F8473007F148024B
:100D7000134413F8343C1846FFF750FF6420FFF784
:100D800013FE97F84730013387F8473097F847301C
:100D90000F2BE3D94FF47A70FFF706FE002387F894
:100DA000473019E097F847300133DBB2012118468C
:100DB000FFF756FF97F8473007F14802134413F83E
:100DC000443C1846FFF72AFF6420FFF7EDFD97F833
:100DD0004730013387F8473097F847300C2BE1D97B
:100DE0004FF47A70FFF7E0FD002387F84730FFF7F4
:100DF0002BFF00210320FFF733FF07F134031846D0
:100E0000FFF7F8FE00233B640AE03B6CDBB21846B8
:100E100000F016F86420FFF7C7FD3B6C01333B641C
:100E20003B6C9F2BF1DD00BF4837BD46B0BD00BF16
:100E30003C0F0008480F0008540F0008680F000816
:100E400080B584B000AF0346FB710023FB73FB79D0
:100E5000204AA2FB03235B09DBB23033FB73012181
:100E60000620FFF7FDFEFB7B1846FFF7D7FEFB7958
:100E7000194AA2FB0323DB08DAB2174BA3FB0213C8
:100E8000D9080B469B000B445B00D31ADBB230330E
:100E9000FB7301210720FFF7E3FEFB7B1846FFF7FA
:100EA000BDFEFA790C4BA3FB0213D9080B469B003D
:100EB0000B445B00D31ADBB23033FB7301210820F3
:100EC000FFF7CEFEFB7B1846FFF7A8FE00BF1037EA
:100ED000BD4680BD1F85EB51CDCCCCCC80B500AFDD
:100EE000FFF770F9064B07220D211846FFF7A4F90A
:100EF000FFF78AFB01210348FFF760FA00BF80BDBE
:100F00000010014080FC0A0080B500AFFFF7E6FF4B
:100F1000FFF7E2FE4FF47A70FFF746FDF8E700BFF7
:100F200000080140000C0140001001400014014085
:100F300000000040002401400030014050524F5456
:100F40004F424F415244000054657374696E6720EC
:100F50004D435500426C75652D50696C6C204152B3
:100F60004D2075430000000053544D33324631305C
:080F7000334338543600000041
:040F780000A24A0485
:04000005080001519D
:00000001FF
