:020000040800F2
:102000000050002051210008BD210008BD2100081A
:10201000BD210008BD210008BD210008BD21000828
:10202000BD210008BD210008BD210008BD21000818
:10203000BD210008BD210008BD2100084123000882
:10204000BD210008BD210008BD210008BD210008F8
:10205000BD210008BD210008BD210008BD210008E8
:10206000BD210008BD210008BD210008BD210008D8
:10207000BD210008BD210008BD210008BD210008C8
:10208000BD210008BD210008BD210008BD210008B8
:10209000BD210008BD210008BD210008BD210008A8
:1020A000BD210008BD210008BD210008BD21000898
:1020B000BD210008BD210008BD210008BD21000888
:1020C000BD210008BD210008BD210008BD21000878
:1020D000BD210008BD210008BD210008BD21000868
:1020E000BD210008BD210008BD210008BD21000858
:1020F000BD210008BD210008BD210008BD21000848
:10210000BD210008BD210008BD210008BD21000837
:10211000BD210008BD210008BD210008BD21000827
:10212000BD210008BD210008BD210008BD21000817
:10213000BD210008BD210008BD210008BD21000807
:10214000BD210008BD210008BD210008BD210008F7
:1021500080B582B000AF134B7B60134B3B60134ADA
:10216000124B5B6943F40073536107E07B685A1CB0
:102170007A603A68511C396012781A707B680C4A90
:102180009342F3D30B4B7B6005E07B6800221A700F
:102190007B6801337B607B68074A9342F5D300F08C
:1021A0005DF9FEE7000C0020A024000800ED00E02F
:1021B000000C0020000C0020040C002080B400AFB4
:1021C000FEE700BF80B400AF164B174A5A60154BAC
:1021D000164A1A6000BF134B1B6803F40033002B30
:1021E000F9D000BF0F4B1B6803F00073002BF9D030
:1021F0000F4B12221A600B4B0E4A5A60094A094BC8
:102200009B6943F4804343F01D039361054A054BEA
:10221000DB6943F4001343F00103D36100BFBD4603
:1022200080BC70470010024000041D0081000101C5
:102230000020024002041D0080B487B000AFF860A7
:10224000B9607A60BB68072B06D9FB6804337B61F1
:10225000BB68083BBB6001E0FB687B617B691B6876
:102260003B61BB689B000F2202FA03F3DB431A4673
:102270003B6913403B617B6803F00F02BB689B0026
:1022800002FA03F33A6913433B617B693A691A60C6
:1022900000BF1C37BD4680BC704700BF80B487B00C
:1022A00000AFF860B9601346FB71FB68DB687B61C7
:1022B000FB79002B08D00122BB6802FA03F31A460F
:1022C0007B6913437B6108E00122BB6802FA03F3D8
:1022D000DB431A467B6913407B61FB687A69DA60ED
:1022E00000BF1C37BD4680BC704700BF80B483B0C0
:1022F00000AF786039607B689B6801213A6801FA19
:1023000002F21340002B14BF01230023DBB2184656
:102310000C37BD4680BC704780B483B000AF786096
:1023200039607B68DB6801213A6801FA02F25A40A1
:102330007B68DA6000BF0C37BD4680BC704700BFC9
:1023400080B500AF044B1B680133034A136000F0F3
:1023500059F800BF80BD00BF000C002080B485B0DC
:1023600000AF7860074B1B68FB6000BF054B1A6825
:10237000FB68D21A7B689A42F8D300BF1437BD4677
:1023800080BC7047000C002080B483B000AF786040
:102390007B6809E000BF084B1B6803F48033002B07
:1023A000F9D07B68013B7B607B68002BF2D100BFDA
:1023B0000C37BD4680BC704710E000E080B483B0AD
:1023C00000AF78600B46FB700D4A0D4B1B68136025
:1023D0000B490B4B1B68FA78520013430B60084AF9
:1023E0007B685360064B00229A60054A044B1B68C9
:1023F00043F00103136000BF0C37BD4680BC70473B
:1024000010E000E080B500AF114B1A68114BA3FB40
:1024100002135B09642101FB03F3D31A002B04D1DF
:102420000D4B0D211846FFF777FF094B1A68094B32
:10243000A3FB02139B09C82101FB03F3D31A002B52
:1024400004D1054B0E211846FFF766FF00BF80BD83
:10245000000C00201F85EB510010014080B500AF3B
:10246000FFF7B0FE01210848FFF7A8FF074B07223E
:102470000D211846FFF7E0FE044B07220E211846F7
:10248000FFF7DAFEFEE700BF40190100001001402F
:1024900000080140000C0140001001400014014000
:04000005080021517D
:00000001FF
