:020000040800F2
:100000000050002051010008BD010008BD0100089A
:10001000BD010008BD010008BD010008BD010008C8
:10002000BD010008BD010008BD010008BD010008B8
:10003000BD010008BD010008BD0100084103000822
:10004000BD010008BD010008BD010008BD01000898
:10005000BD010008BD010008BD010008BD01000888
:10006000BD010008BD010008BD010008BD01000878
:10007000BD010008BD010008BD010008BD01000868
:10008000BD010008BD010008BD010008BD01000858
:10009000BD010008BD010008BD010008BD01000848
:1000A000BD010008BD010008BD010008BD01000838
:1000B000BD010008BD010008BD010008BD01000828
:1000C000BD010008BD010008BD010008BD01000818
:1000D000BD010008BD010008BD010008BD01000808
:1000E000BD010008BD010008BD010008BD010008F8
:1000F000BD010008BD010008BD010008BD010008E8
:10010000BD010008BD010008BD010008BD010008D7
:10011000BD010008BD010008BD010008BD010008C7
:10012000BD010008BD010008BD010008BD010008B7
:10013000BD010008BD010008BD010008BD010008A7
:10014000BD010008BD010008BD010008BD01000897
:1001500080B582B000AF134B7B60134B3B60134AFA
:10016000124B5B6943F40073536107E07B685A1CD0
:100170007A603A68511C396012781A707B680C4AB0
:100180009342F3D30B4B7B6005E07B6800221A702F
:100190007B6801337B607B68074A9342F5D300F0AC
:1001A00091FCFEE7000000207C23000800ED00E049
:1001B00004000020040000201400002080B400AFE0
:1001C000FEE700BF80B400AF164B174A5A60154BCC
:1001D000164A1A6000BF134B1B6803F40033002B50
:1001E000F9D000BF0F4B1B6803F00073002BF9D050
:1001F0000F4B12221A600B4B0E4A5A60094A094BE8
:100200009B6943F4804343F01D039361054A054B0A
:10021000DB6943F4001343F00103D36100BFBD4623
:1002200080BC70470010024000041D0081000101E5
:100230000020024002041D0080B487B000AFF860C7
:10024000B9607A60BB68072B06D9FB6804337B6111
:10025000BB68083BBB6001E0FB687B617B691B6896
:100260003B61BB689B000F2202FA03F3DB431A4693
:100270003B6913403B617B6803F00F02BB689B0046
:1002800002FA03F33A6913433B617B693A691A60E6
:1002900000BF1C37BD4680BC704700BF80B487B02C
:1002A00000AFF860B9601346FB71FB68DB687B61E7
:1002B000FB79002B08D00122BB6802FA03F31A462F
:1002C0007B6913437B6108E00122BB6802FA03F3F8
:1002D000DB431A467B6913407B61FB687A69DA600D
:1002E00000BF1C37BD4680BC704700BF80B483B0E0
:1002F00000AF786039607B689B6801213A6801FA39
:1003000002F21340002B14BF01230023DBB2184676
:100310000C37BD4680BC704780B483B000AF7860B6
:1003200039607B68DB6801213A6801FA02F25A40C1
:100330007B68DA6000BF0C37BD4680BC704700BFE9
:1003400080B500AF044B1B680133034A136000F013
:100350002BFB00BF80BD00BF0400002080B485B02F
:1003600000AF7860074B1B68FB6000BF054B1A6845
:10037000FB68D21A7B689A42F8D300BF1437BD4697
:1003800080BC70470400002080B483B000AF786068
:100390007B6809E000BF084B1B6803F48033002B27
:1003A000F9D07B68013B7B607B68002BF2D100BFFA
:1003B0000C37BD4680BC704710E000E080B483B0CD
:1003C00000AF78600B46FB700D4A0D4B1B68136045
:1003D0000B490B4B1B68FA78520013430B60084A19
:1003E0007B685360064B00229A60054A044B1B68E9
:1003F00043F00103136000BF0C37BD4680BC70475B
:1004000010E000E080B483B000AF2A4A294BDB69DA
:1004100043F00103D361274A264B9B6943F0040351
:100420009361254A244B1B6823F0F0031360224A92
:10043000214B1B6843F0B0031360204B1B68204A1C
:10044000A2FB03239B0CFB804FF08042FB88013B07
:1004500093621A4B1A68FB88B2FBF3F3194AA2FBAA
:1004600003231B09BB804FF08042BB88D3624FF04F
:10047000804340F23C529A634FF080424FF08043F9
:100480009B6943F4C04393614FF080424FF0804337
:100490001B6A43F0100313624FF080424FF0804319
:1004A0001B6843F00103136000BF0C37BD4680BCDE
:1004B000704700BF0010024000080140000000200B
:1004C00083DE1B431F85EB5180B400AF204A204BD5
:1004D0005B6843F4004353601D4A1D4B9B6943F422
:1004E000007393611B4A1B4B1B6823F00F031360BF
:1004F000194A194B1B6943F003031361164A164B43
:100500009B6843F003039360134A134B9B6843F0CB
:100510000803936000BF104B9B6803F00803002B97
:10052000F9D10D4A0C4B9B6843F00403936000BF64
:10053000094B9B6803F00403002BF9D1064A064BD4
:100540009B6843F00103936000BFBD4680BC7047C9
:1005500000100240000801400024014080B582B034
:1005600000AF7860114B0B2209211846FFF764FE9B
:100570000E4B08220A211846FFF75EFE0C4B42F292
:100580000C02DA600A4B00221A61094B00225A6100
:10059000074B00229A61064A06497B6891FBF3F3F8
:1005A000936000BF0837BD4680BD00BF0008014012
:1005B0000038014000A24A0480B483B000AF034673
:1005C000FB7100BF064B1B6803F08003002BF9D0C2
:1005D000034AFB79536000BF0C37BD4680BC7047AF
:1005E0000038014080B400AF00BF064B1B6803F029
:1005F0002003002BF9D0034B5B68DBB21846BD46E5
:1006000080BC70470038014080B500AF0E4B0F2210
:1006100006211846FFF710FE0B4B0F220721184644
:10062000FFF70AFE094B24225A60084B0B221A627C
:10063000064B48F25002DA61044A044B1B6843F04F
:100640000103136000BF80BD000C01400054004056
:1006500080B487B000AF0346B9607A60FB733C4A50
:100660003B4B1B6843F48073136000237B6109E0FC
:100670007B69B3F57A7F02D94FF0FF3362E07B6983
:1006800001337B61324B5B6903F00103002BEFD038
:100690002F4AFB7B5B00136100237B6109E07B69D0
:1006A000B3F57A7F02D96FF001034BE07B69013328
:1006B0007B61274B5B6903F00203002BEFD0244BD7
:1006C0009B691CE000237B6109E07B69B3F57A7FBD
:1006D00002D96FF0020335E07B6901337B611C4B6B
:1006E0005B6903F08003002BEFD0194ABB681B78CD
:1006F00013617B68013B7B60BB680133BB607B6837
:10070000002BDFD100237B6109E07B69B3F57A7FA1
:1007100002D96FF0030315E07B6901337B610C4B59
:100720005B6903F08003002BEFD0094B5B6903F09A
:100730000403002BE9D0064A054B1B6843F4007301
:100740001360002318461C37BD4680BC704700BFAD
:100750000054004080B487B000AF03463960FB719D
:100760003C4A3C4B1B6843F480631360394A394B65
:100770001B6843F48073136000237B6109E07B698D
:10078000B3F57A7F02D94FF0FF335DE07B69013327
:100790007B61304B5B6903F00103002BEFD02D4AE6
:1007A000FB795B0043F00103136100237B6109E0E7
:1007B0007B69B3F57A7F02D96FF0010344E07B696E
:1007C00001337B61234B5B6903F00203002BEFD005
:1007D000204B9B6900233B611EE000237B6109E005
:1007E0007B69B3F57A7F02D96FF002032CE07B6955
:1007F00001337B61174B5B6903F04003002BEFD0A3
:10080000144B1B69FB60134A124B1B6843F4806353
:1008100013603B6901333B613B685A1E3B699A4256
:10082000DBDA3B6901333B610A4B1B69FB60094A18
:10083000084B1B6823F480631360064A054B1B6852
:1008400043F400731360FB6818461C37BD4680BC38
:10085000704700BF0054004080B500AF1D4A1D4BDB
:100860009B6943F0040393611A4A1A4B9B6943F452
:1008700080539361184A184B1B6823F0704323F48C
:100880007F031360144A144B1B6843F44033136016
:10089000114A114B1B6843F4300313600E4A0E4B90
:1008A0001B6843F0304313600B4B082206211846A7
:1008B000FFF7C2FC084B10221A61084B4FF4497233
:1008C0001A60064A054B1B6843F04003136000BFE3
:1008D00080BD00BF00100240000801400030014010
:1008E00080B483B000AF0346FB80104B4FF48012FE
:1008F0001A610F4AFB88D36000BF0D4B9B6803F061
:100900000203002BF9D000BF094B9B6803F0800362
:10091000002BF9D1054B10221A61054BDB689BB205
:1009200018460C37BD4680BC704700BF0008014028
:100930000030014080B483B000AF03460A46FB712B
:100940001346BB71164B4FF480121A61154AFB799E
:10095000D36000BF134B9B6803F00203002BF9D058
:1009600000BF104B9B6803F08003002BF9D10D4AA8
:10097000BB79D36000BF0B4B9B6803F00203002BD5
:10098000F9D000BF074B9B6803F08003002BF9D11F
:10099000034B10221A6100BF0C37BD4680BC704764
:1009A000000801400030014080B500AF214B1A68BB
:1009B000214BA3FB02135B094FF4FA7101FB03F314
:1009C000D31A002B34D11D4B0D211846FFF7A4FC80
:1009D0001B4B00221A6017E0194B1B68DBB2013376
:1009E000D8B2184B1B889BB21A46154B1B68164988
:1009F000D2000A4413441B781946FFF79BFF104BA3
:100A00001B6801330E4A13600D4B1B68072BE3DD97
:100A10000C4B1B889BB201339AB20A4B1A80094BCC
:100A20001B889BB2B3F5437F02D9064B00221A8084
:100A300000BF80BD04000020D34D621000100140B3
:100A40000C000020080000200C0B000880B500AF4F
:100A5000FFF702FF00210F20FFF76CFF07210A209C
:100A6000FFF768FF07210B20FFF764FF01210C202F
:100A7000FFF760FF114B00221A6004E00F4B1B6868
:100A800001330E4A13600D4B1B68B3F5826FF5DB23
:100A90000B4B01221A600BE0094B1B68DBB20021F3
:100AA0001846FFF747FF064B1B680133044A1360E3
:100AB000034B1B68082BEFDD00BF80BD100000203A
:100AC0000C00002080B500AFFFF77CFB0121064839
:100AD000FFF774FC054B07220D211846FFF7ACFB0E
:100AE000FFF7B4FFFEE700BF40190100001001400E
:100AF00000080140000C01400010014000140140BA
:100B000000000040002401400030014000000000CF
:100B1000000000007E81A581BD99817E7EFFDBFF04
:100B2000C3E7FF7E6CFEFEFE7C38100010387CFEB2
:100B30007C381000387C38FEFE7C387C1010387C05
:100B4000FE7C387C0000183C3C180000FFFFE7C327
:100B5000C3E7FFFF003C664242663C00FFC399BD0D
:100B6000BD99C3FF0F070F7DCCCCCC783C66666681
:100B70003C187E183F333F303070F0E07F637F6376
:100B80006367E6C0995A3CE7E73C5A9980E0F8FE73
:100B9000F8E08000020E3EFE3E0E0200183C7E1879
:100BA000187E3C1866666666660066007FDBDB7B47
:100BB0001B1B1B003E63386C6C38CC7800000000B7
:100BC0007E7E7E00183C7E187E3C18FF183C7E1806
:100BD00018181800181818187E3C180000180CFE79
:100BE0000C180000003060FE603000000000C0C043
:100BF000C0FE0000002466FF6624000000183C7E52
:100C0000FFFF000000FFFF7E3C1800000000000016
:100C10000000000030787830300030006C6C6C00E0
:100C2000000000006C6CFE6CFE6C6C00307CC078C8
:100C30000CF8300000C6CC183066C600386C387628
:100C4000DCCC76006060C0000000000018306060FE
:100C500060301800603018181830600000663CFFE3
:100C60003C660000003030FC303000000000000026
:100C700000303060000000FC0000000000000000B8
:100C800000303000060C183060C080007CC6CEDE1C
:100C9000F6E67C00307030303030FC0078CC0C3818
:100CA00060C4FC0078CC0C380CCC78001C3C6CCCBC
:100CB000FE0C1E00FCC0F80C0CCC78003860C0F8AC
:100CC000CCCC7800FCCC0C183030300078CCCC7810
:100CD000CCCC780078CCCC7C0C1870000030300084
:100CE000003030000030300030306000183060C01C
:100CF000603018000000FC0000FC00006030180CA0
:100D00001830600078CC0C18300030007CC6DEDE75
:100D1000DEC078003078CCCCFCCCCC00FC66667CA5
:100D20006666FC003C66C0C0C0663C00F86C666647
:100D3000666CF800FE6268786862FE00FE626878A1
:100D40006860F0003C66C0C0CE663E00CCCCCCFCF7
:100D5000CCCCCC0078303030303078001E0C0C0C0D
:100D6000CCCC7800E6666C786C66E600F06060607B
:100D70006266FE00C6EEFEFED6C6C600C6E6F6DE1B
:100D8000CEC6C600386CC6C6C66C3800FC66667C2B
:100D90006060F00078CCCCCCDC781C00FC66667C13
:100DA0006C66E60078CCE0701CCC7800FCB4303087
:100DB00030307800CCCCCCCCCCCCFC00CCCCCCCC67
:100DC000CC783000C6C6C6D6FEEEC600C6C66C38A5
:100DD000386CC600CCCCCC7830307800FEC68C188D
:100DE0003266FE007860606060607800C060301835
:100DF0000C060200781818181818780010386CC6FD
:100E00000000000000000000000000FF303018006B
:100E1000000000000000780C7CCC7600E060607C74
:100E20006666DC00000078CCC0CC78001C0C0C7C22
:100E3000CCCC7600000078CCFCC07800386C60F038
:100E40006060F000000076CCCC7C0CF8E0606C7642
:100E50006666E60030007030303078000C000C0C14
:100E60000CCCCC78E060666C786CE600703030308A
:100E7000303078000000CCFEFED6C6000000F8CC72
:100E8000CCCCCC00000078CCCCCC78000000DC6668
:100E9000667C60F0000076CCCC7C0C1E0000DC761A
:100EA0006660F00000007CC0780CF80010307C30E8
:100EB000303418000000CCCCCCCC76000000CCCC78
:100EC000CC7830000000C6D6FEFE6C000000C66C78
:100ED000386CC6000000CCCCCC7C0CF80000FC9830
:100EE0003064FC001C3030E030301C001818180052
:100EF00018181800E030301C3030E00076DC0000BC
:100F0000000000000010386CC6C6FE0000000000A3
:100F100000000000181800181818180018187EC0D3
:100F2000C07E1818386C64F060E6FC0000C67CC611
:100F3000C67CC600CCCC78FC30FC303018181800C9
:100F4000181818003E63386C6C38CC78C600000066
:100F5000000000007E819DA1A19D817E3C6C6C3EC5
:100F6000007E0000003366CC66330000000000FC09
:100F70000C0C00000000007E000000007E81B9A57E
:100F8000B9A5817EFF00000000000000386C6C38BD
:100F9000000000003030FC303000FC007018306081
:100FA0007800000070183018700000000C18300035
:100FB0000000000000666666667C60C07FDBDB7B4D
:100FC0001B1B1B00000000001800000000000000B8
:100FD00000180C383070303078000000386C6C38F5
:100FE000007C000000CC663366CC0000C3C6CCDBBE
:100FF000376FCF03C3C6CCDE3366CC0FE033663C1D
:10100000FB376FC330003060C0CC7800C0386CC68E
:10101000FEC6C60006386CC6FEC6C6007CC6386C66
:10102000C6FEC60076DC386CC6FEC600C6386CC686
:10103000FEC6C60030300078CCFCCC003E6CCCFE46
:10104000CCCCCE0078CCC0CC78180C78E000FC601A
:101050007860FC001C00FC607860FC0078CCFC60D0
:101060007860FC00CC00FC607860FC00E000783028
:10107000303078001C007830303078007EC33C1867
:1010800018183C00CC00783030307800F86C66F6E8
:10109000666CF800FC00CCECFCDCCC00C0386CC604
:1010A000C66C380006386CC6C66C38007CC6386C16
:1010B000C66C380076DC386CC66C3800C3183C66E9
:1010C000663C180000C66C386CC600003A6CCED680
:1010D000E66CB800E000CCCCCCCC78001C00CCCCCA
:1010E000CCCC78007CC600C6C6C67C00CC00CCCC7C
:1010F000CCCC78001C00CCCC78307800F0607C66DA
:101100007C60F00078CCCCD8CCC6CC00E000780C69
:101110007CCC7E001C00780C7CCC7E007EC33C0620
:101120003E663F0076DC780C7CCC7E00CC00780CF0
:101130007CCC7E003030780C7CCC7E0000007F0CB4
:101140007FCC7F00000078C0C0780C38E00078CCFD
:10115000FCC078001C0078CCFCC078007EC33C66E4
:101160007E603C00CC0078CCFCC07800E0007030A1
:101170003030780038007030303078007CC6381855
:1011800018183C00CC00703030307800307E0C7C79
:10119000CCCC780000F800F8CCCCCC0000E0007893
:1011A000CCCC7800001C0078CCCC780078CC0078CF
:1011B000CCCC780076DC0078CCCC780000CC007801
:1011C000CCCC7800303000FC0030300000027CCE07
:1011D000D6E67C8000E000CCCCCC7E00001C00CCAD
:1011E000CCCC7E0078CC00CCCCCC7E0000CC00CC2B
:1011F000CCCC7E00001C00CCCC7C0C78E0607C6603
:10120000667C60F000CC00CCCC7C0CF8FE00386C26
:10121000C6FEC6007C00780C7CCC7E00C67C386C98
:10122000C6FEC600CC78780C7CCC7E003078CCCC66
:10123000FCCCDC0E0000780C7CCC7E070E3C66C03B
:10124000C0663C001C0078CCC0CC78007EC33C66F5
:10125000C0663C00386C003C60603C0018003C6696
:10126000C0663C000018003C60603C00C37E3C66E9
:10127000C0663C006C38003C60603C00CC78FC668A
:101280006666FC00DE76063E66663B00F86C66F637
:10129000666CF8000C3E0C7CCCCC7600FC00FC604C
:1012A0007860FC00FC0078CCFCC07800CC78FC6056
:1012B0007860FC00CC7878CCFCC078003000FC6012
:1012C0007860FC00300078CCFCC07800FE62687862
:1012D0006862FE0C000078CCFCC07C0E6C38FC60B0
:1012E0007860FC006C3878CCFCC078007EC33E602F
:1012F000CE663E00386C0076CC7C0CF8361C3E6026
:10130000CE663E00663C0076CC7C0CF818003E6051
:10131000CE663E00180076CCCC7C0CF83C66C0CE85
:10132000663E0C380E1876CCCC7C0CF878CC00CC11
:10133000FCCCCC00EE7B606C7666E60066FF667ED9
:1013400066666600E060F06C7666E60076DC007843
:101350003030780076DC007030307800FC00783077
:1013600030307800F800703030307800CC78007879
:1013700030307800CC780070303078007830303001
:101380003030781C300070303030781C30007830CD
:10139000303078000000703030307800C6C6C6C6E5
:1013A000D6D6DC00C600C6C6C6D6D61C3E631C0C0C
:1013B0000CCC78001E33000C0CCCCC78E6666C7834
:1013C0006C66E61CE060666C786CE61C0000E66CFF
:1013D000786C6600F36660606266FE0073363030DB
:1013E00030307800F060606266FE18707030303027
:1013F00030781870FB6E64606266FE00DBCEC4C09D
:10140000C0C0E000F06066606266FE00703036309A
:1014100030307800F0607870E266FE0070363C385C
:101420003070D8000E00E6F6DECEC6001C00F8CC08
:10143000CCCCCC00C6E6F6DECEC618700000F8CCE8
:10144000CCCC30E06C38E6F6DECEC600CC7800F8C6
:10145000CCCCCC0060C000F8CCCCCC00C6E6F6DE2C
:10146000CEC6C61C0000F8CCCCCCCC18FE00386C24
:10147000C66C380000FC0078CCCC7800C67C386C98
:10148000C66C3800CC780078CCCC78003600386C4C
:10149000C66C380000360078CCCC78003E6CCCCEE0
:1014A000CC6C3E0000007ED8DED87E000E00FC66CC
:1014B0007C6CE6000E00DC766660F000FC66667C04
:1014C0006CE618700000DC7660F018706C38FC6612
:1014D0007C6CE6006C38DC766660F0007BCCE070FB
:1014E0001CCC78001C007CC0780CF800386C7CE0C8
:1014F000781CF800386C0078E01C780078CCE0703C
:101500001CCC78E000007CC0780CF8E0CC78CC6093
:1015100018CC78006C387CC0780CF800FCB4303003
:10152000307818F010307C3030341870CC78FCB43F
:1015300030307800CC78307C30341800FCB430FC8B
:101540003030780010307C3078321C0076DC6666F3
:1015500066663C0076DC00CCCCCC7E00FC00CCCCBB
:10156000CCCC780000FC00CCCCCC7E00CC7800CC7D
:10157000CCCC7800CC7800CCCCCC7E003000CCCC6D
:10158000CCCC7800303000CCCCCC7E003600CCCC3B
:10159000CCCC7800003600CCCCCC7E00CCCCCCCCF3
:1015A000CCCC780E0000CCCCCCCC7C0E386C00D6E9
:1015B000FEEEC600386C00C6D6FE6C0078CC00CCBF
:1015C0007830780078CC00CCCC7C0C78CC00CCCCBB
:1015D0007830780003FECC983266FE001C00FC9840
:1015E0003064FC0030FECC983266FE003000FC987F
:1015F0003064FC00C37E664C18327E00CC78FC98C8
:101600003064FC00386C60606060F0000E1B183CB9
:101610001818D87000007ED8D8D87000FCCC1838C4
:101620000CCC78003C300078CCFCCC003C30780C02
:101630007CCC7E000E003E6CFECCCE000E007F0CFB
:101640007FCC7F00073A6CD6D66CB8001C027CCEEB
:10165000D6E67C8078CCE0701CCC783000007CC072
:10166000780CF830FCB430303030783010307C30CA
:1016700030341830000076DCC8DC7600FC3078CCE2
:10168000CC7830FC10386C0000000000D8700000EE
:10169000000000007C00000000000000C67C00008C
:1016A000000000003000000000000000386C6C38C2
:1016B00000000000000000000000181C76DC0000A4
:1016C0000000000036000000000000000030300084
:1016D00030306000183020000000000008C3000017
:1016E0000000000098BC66667E6666000000181860
:1016F00000000000BEB2303C30323E00B6B6363E8E
:1017000036363600BC98181818183C00B86CC6C697
:10171000C66C3800B6B6361C08081C00B86CC6C6C5
:10172000C66CEE0008C3181818180C003078CCCC22
:10173000FCCCCC00FC66667C6666FC00FCCCC0C0C1
:10174000C0C0C00010386CC6C6C6FE00FE62687815
:101750006862FE00FEC68C183266FE00CCCCCCFC63
:10176000CCCCCC00386CC6FEC66C3800783030303B
:1017700030307800E6666C786C66E60010386CC62F
:10178000C6C6C600C6EEFEFED6C6C600C6E6F6DE75
:10179000CEC6C600FEC6007C00C6FE00386CC6C6BB
:1017A000C66C3800FCCCCCCCCCCCCC00FC66667CC7
:1017B0006060F000FE6630183066FE00FCB4303029
:1017C00030307800CCCCCC7830307800107CD6D655
:1017D0007C101000C6C66C38386CC600C6D6D67CE5
:1017E00010101000386CC6C6C66CEE00CC00783005
:1017F00030307800CC00CCCC78307800180076DC23
:10180000CCDC760030007CC070C07C003000B8ECCE
:101810006C6C6C00300030303030180008C300664B
:1018200066663C00000076DCCCDC760078CCCCF838
:10183000CCF8C0C00000CC783078CC7878CC607818
:10184000CCCC780000007CC070C07C00FC3060C054
:10185000C0780C380000B8EC6C6C6C0078CCCCFC18
:10186000CCCC780000003030303018000000CCD8EC
:10187000F0D8CC0070D80C3C6CCCCC000000CCCCA8
:10188000CCFEC0C00000CCCCCC783000FC3060383E
:1018900060380C38000078CCCCCC78000000FCCC50
:1018A000CCCCCC00000078CCCCF8C0C000007CC60A
:1018B000C07C061C00007CD8CCCC78000000FC303A
:1018C000303018000000CCCCCCCC78000000DCD646
:1018D000D67C10100000CC783078CC000000D6D632
:1018E000D67C10100000C6D6D6D66C00CC003030A6
:1018F00030301800CC00CCCCCCCC7800300078CC88
:10190000CCCC78003000CCCCCCCC78001800C6D63B
:10191000D6D66C000078CCF8CCF8C0C0386CC6FEC7
:10192000C66C3800E000FE627862FE006CFE6278F1
:101930006062FE00FC607C6666666C003820FEC655
:10194000C0C0C0003C66C0F8C0663C003C66703851
:101950000E663C003C18181818183C0066003C182D
:1019600018183C001E0C0C0CCCCC7800F8585C5AB3
:101970005A5ADC00D8D8D8FCDADADC00F8607C6689
:101980006666660018E66C786C66E6007010C6CE77
:10199000DEF6E6003800C6C67E067C00C6C6C6C6B1
:1019A000C6C6FE103078CCCCFCCCCC00FE66607C89
:1019B0006666FC00FC66667C6666FC00FE6662602D
:1019C0006060F0001E3666666666FFC3FE62687879
:1019D0006862FE00D6D67C387CD6D6007CC6063C33
:1019E00006C67C00C6C6CEDEF6E6C60038C6CEDE2B
:1019F000F6E6C600E6666C786C66E6001E3666663D
:101A00006666C600C6EEFEFED6C6C6006666667E82
:101A100066666600386CC6C6C66C38007E6666664A
:101A200066666600FC6666667C60F0003C66C0C068
:101A3000C0663C007E5A181818183C006666663E60
:101A400006663C007CD6D6D67C103800C6C66C38FC
:101A5000386CC600CCCCCCCCCCCCFE066666663EE0
:101A600006060600D6D6D6D6D6D6FE00D6D6D6D60A
:101A7000D6D6FF03F0B0B03C36363C00C6C6C6F63C
:101A8000DEDEF600F060607C66667C00788C063EE8
:101A9000068C7800CCD6D6F6D6D6CC003E666666E6
:101AA0003E3666000000780C7CCC7600063C603C3C
:101AB00066663C000000FC667C66FC000000FE667A
:101AC0006060F00000003C6C6C6CFEC600003C6680
:101AD0007E603C000000D67C387CD60000007CC6CE
:101AE0001CC67C000000C6CEDEF6E6006C38C6CE12
:101AF000DEF6E6000000E66C786CE60000003E666C
:101B00006666E6000000C6FEFED6C60000006666F9
:101B10007E66660000003C6666663C0000007E66ED
:101B2000666666000000FC66667C60F000003C664D
:101B300060663C0000007E5A18183C000000666693
:101B4000663E067C00007CD6D67C10380000C66C51
:101B5000386CC6000000CCCCCCCCFE06000066661B
:101B60003E0606000000D6D6D6D6FE000000D6D629
:101B7000D6D6FF030000F0B03C363C000000C6C6DD
:101B8000F6DEF6000000F0607C66FC0000007CC61B
:101B90001EC67C000000CCD6F6D6CC0000003E6607
:101BA0003E36660070003C667E603C0066003C6627
:101BB0007E603C0060F0607C6666660C1C10007EF7
:101BC0006060600000007CC6F0C67C0000003E60E3
:101BD0003C067C001800381818183C0066003818BD
:101BE00018183C00060006060666663C0000F85819
:101BF0005C5ADC000000D8D8FCDADC0060F0607CC5
:101C0000666666001C10E66C786CE60038080066B4
:101C10006E7E76006C38C6C6C67E067C0000C6C6E0
:101C2000C6C6FE1006FE60606060F0000006FE6042
:101C30006060F000007E00000000000000C66676D4
:101C4000DCCCC60000F80C0C0C0CFE0000380C0CB0
:101C50001C34E60000FE0C0C0C0C0C0000FC06060C
:101C6000C6C6C6000070181818181800003C1818CE
:101C70000C18300000FC66C6C6C6C60000CCD6D61E
:101C8000C6CC780000380C0C1800000000FC0606DA
:101C90000C0C0C0E00FC06060606FC00C0FC06063A
:101CA0000C18180000FC66C6C6C6FE0000DC76668E
:101CB000C6C6DE0000380C181818181C00380C0CAA
:101CC0000C0C7C0000FC66C6C6CC7800006666661C
:101CD0006636FC0000F84CCCEC0C0C0E00FC46C642
:101CE000E606FE00006666667C6060700066361C74
:101CF0000C067E0000FC06666C6E606000FC06064A
:101D00000606060000D6D6D6F6C67C0000FC66663F
:101D100066E6E60000CC66666666660000CC66662F
:101D20000606060000CC66660000000018183000A9
:101D3000000000006666CC00000000000076DC18A1
:101D40001818180000FCCCC0C0C0C00000FE6C6CAD
:101D50006C6C6C00E000C6D6FEEEC600E000C6D695
:101D6000FEFE6C000E00C6D6FEEEC6000E00C6D605
:101D7000FEFE6C00C600C6D6FEEEC600C600C6D685
:101D8000FEFE6C001C30187CCCCC7800E000CCCC83
:101D90007830780000E000CCCC7C0CF8000000FC2F
:101DA000000000000000007C000000000000007C3B
:101DB00000000000000000FF00000000000000FF25
:101DC000000000000000000000FF00FF183030009D
:101DD0000000000030306000000000000000000043
:101DE00000303060303018000000000066CCCC00BD
:101DF000000000006666CC0000000000000000004B
:101E0000006666CCCCCC6600000000003030FC30B0
:101E1000303030303030FC3030FC30300000183C96
:101E20003C1800000000000000DBDB000000001890
:101E30001800000000CCD83060DB9B001830600038
:101E400000000000366CD800000000006030180070
:101E500000000000001830603018000000603018EA
:101E6000306000006666666666006600FF0000007F
:101E700000000000000000000000C67C7CC60000DE
:101E800000000000060C183060C080000000000058
:101E900000007CC61838787C180000007860701844
:101EA000700000003860786C380000007C0C18303E
:101EB00030000000386C386C38000000386C3C0C86
:101EC000380000003030FC303000000000007800A6
:101ED00000000000786C6C6C6C00000000000030AA
:101EE00070303078000000701830607800000070AA
:101EF000183018700000001838787C18000000783E
:101F0000607018700000003860786C380000007C49
:101F10000C183030000000386C386C380000003885
:101F20006C3C0C380000003030FC30300000000009
:101F300000780000FE6268786860F0603C66F260DD
:101F4000F066FC00F8CCCCFAC6CFC6C700FA8AAA65
:101F5000AAA2BE003C62F860F8623C0073C6CC786E
:101F60003E7BDB0E10386C6C38345800CFEDFFDC54
:101F7000CFCCCC00F15B555100000000386CC6C6D8
:101F80006C6CEE00000078CCFCC07800C3C6CCD8E6
:101F90003F63C606C3C6CCDE3B6FC30EC3C6CCDEF2
:101FA0003366C30EC366CCFE3366C30EC3C6CCDF36
:101FB0003C6EC30EC366CCFF3C6EC30EE3366C3F73
:101FC000FC6EC30E3376FC3F3C6EC30EC3C6CCDE44
:101FD000387EDB0EF3C6EC3EF87EDB0EC3C6CCDEED
:101FE0003B6EDB0EE3366C3EFB6EDB0EF3C6EC3E67
:101FF000FB6EDB0EF3366CDE3B6EDB0E003060FEFC
:1020000060300000183C7E181818180000180CFEEC
:102010000C180000181818187E3C1800002466FFE1
:1020200066240000183C7E18187E3C18183C7E1868
:102030007E3C18FF386C0C7CCCCC7800060C7EDB28
:10204000DB7E306010386CC6C6C6FE003860C0F853
:10205000C0603800FEC6C6C6C6C6C6C6FCCC603068
:1020600060CCFC00000000FC00000000060C1830F2
:1020700060C0800000000018180000000F0C0C0C5D
:10208000EC6C3C1C00007EDBDB7E00000000C0C06E
:10209000C0FE000078CCCCCCCCCCCC000E1B1B18E6
:1020A00018D8D8700076DC0076DC0000000CFE1832
:1020B00030FE600000FC00FC00FC000018306030C6
:1020C0001800FC00603018306000FC007CC6C6D6EA
:1020D000C6C67C007CC6CED6E6C67C000010386C36
:1020E000C6C6FE00000000FCC0C000000E1B1B188E
:1020F000181818181818181818D8D87000000000E8
:10210000FF00000018181818181818180000000010
:102110001F18181800000000F818181818181818B8
:102120001F00000018181818F800000018181818D8
:102130001F18181818181818F81818180000000098
:10214000FF18181818181818FF0000001818181889
:10215000FF1818180000FF00FF0000003636363662
:102160003636363600001F181F18181800000000F9
:102170003F36363600003F30373636360000F81826
:10218000F818181800000000FE3636360000FE066B
:10219000F636363618181F181F0000003636363649
:1021A0003F000000363637303F0000001818F8189E
:1021B000F800000036363636FE0000003636F606E9
:1021C000FE00000018181F181F181818363636366B
:1021D0003736363636363730373636361818F8183A
:1021E000F818181836363636F63636363636F606D7
:1021F000F63636360000FF00FF1818180000000001
:10220000FF3636360000FF00F73636361818FF0066
:10221000FF00000036363636FF0000003636F70085
:10222000FF0000001818FF18FF1818183636363649
:10223000FF3636363636F700F7363636FFFFFFFF05
:1022400000000000000000000000FFFF0000000090
:10225000FFFFFFFFFFFFFFFFFFFFFFFFF0F0F0F0CA
:10226000F0F0F0F00F0F0F0F0F0F0F0F22882288E2
:102270002288228855AA55AA55AA55AADB77DBEEF3
:10228000DB77DBEE00003C3C3C3C000000007C6C5B
:102290006C7C00000000003C3C3C00000000007C26
:1022A0006C7C0000000000007E7E7E0000183C7EFA
:1022B000FFFF000080E0F8FEF8E0800000FFFF7EF6
:1022C0003C180000020E3EFE3E0E020010386CC6A6
:1022D0006C381000003C664242663C00003C7E7E4A
:1022E0007E7E3C00FFFFE7C3C3E7FFFFFFC399BD4E
:1022F000BD99C3FF0000386C6C3800007E81A58159
:10230000BD99817E7EFFDBFFC3E7FF7E995A3CE7E4
:10231000E73C5A993C6666663C187E180F070F7DAD
:10232000CCCCCC781010387CFE7C387C387C38FEE5
:10233000FE7C387C6CFEFEFE7C38100010387CFE83
:102340007C3810003F333F303070F0E07F637F63B4
:102350006367E6C003030606C66C3C183E6E60FE6B
:102360006666F7003E6666F66666F700C399F9F39F
:0C237000E7FFE7FFC399F9F3E7FFE7FF81
:04237C0000A24A046D
:04000005080001519D
:00000001FF
